{
  "address": "0x18DcE82D1d65164Ecddd4b122b7A0BAC3c5bf80E",
  "abi": [
    {
      "inputs": [
        {
          "internalType": "address",
          "name": "exampleExternalContractAddress",
          "type": "address"
        }
      ],
      "stateMutability": "nonpayable",
      "type": "constructor"
    },
    {
      "anonymous": false,
      "inputs": [
        {
          "indexed": false,
          "internalType": "uint256",
          "name": "amount",
          "type": "uint256"
        }
      ],
      "name": "Execute",
      "type": "event"
    },
    {
      "anonymous": false,
      "inputs": [
        {
          "indexed": true,
          "internalType": "address",
          "name": "staker",
          "type": "address"
        },
        {
          "indexed": false,
          "internalType": "uint256",
          "name": "amount",
          "type": "uint256"
        }
      ],
      "name": "Stake",
      "type": "event"
    },
    {
      "anonymous": false,
      "inputs": [
        {
          "indexed": true,
          "internalType": "address",
          "name": "staker",
          "type": "address"
        },
        {
          "indexed": false,
          "internalType": "uint256",
          "name": "amount",
          "type": "uint256"
        }
      ],
      "name": "Withdraw",
      "type": "event"
    },
    {
      "inputs": [
        {
          "internalType": "address",
          "name": "",
          "type": "address"
        }
      ],
      "name": "balances",
      "outputs": [
        {
          "internalType": "uint256",
          "name": "",
          "type": "uint256"
        }
      ],
      "stateMutability": "view",
      "type": "function"
    },
    {
      "inputs": [],
      "name": "deadline",
      "outputs": [
        {
          "internalType": "uint256",
          "name": "",
          "type": "uint256"
        }
      ],
      "stateMutability": "view",
      "type": "function"
    },
    {
      "inputs": [],
      "name": "exampleExternalContract",
      "outputs": [
        {
          "internalType": "contract ExampleExternalContract",
          "name": "",
          "type": "address"
        }
      ],
      "stateMutability": "view",
      "type": "function"
    },
    {
      "inputs": [],
      "name": "execute",
      "outputs": [],
      "stateMutability": "nonpayable",
      "type": "function"
    },
    {
      "inputs": [],
      "name": "executed",
      "outputs": [
        {
          "internalType": "bool",
          "name": "",
          "type": "bool"
        }
      ],
      "stateMutability": "view",
      "type": "function"
    },
    {
      "inputs": [],
      "name": "openForWithdraw",
      "outputs": [
        {
          "internalType": "bool",
          "name": "",
          "type": "bool"
        }
      ],
      "stateMutability": "view",
      "type": "function"
    },
    {
      "inputs": [],
      "name": "stake",
      "outputs": [],
      "stateMutability": "payable",
      "type": "function"
    },
    {
      "inputs": [],
      "name": "threshold",
      "outputs": [
        {
          "internalType": "uint256",
          "name": "",
          "type": "uint256"
        }
      ],
      "stateMutability": "view",
      "type": "function"
    },
    {
      "inputs": [],
      "name": "timeLeft",
      "outputs": [
        {
          "internalType": "uint256",
          "name": "",
          "type": "uint256"
        }
      ],
      "stateMutability": "view",
      "type": "function"
    },
    {
      "inputs": [],
      "name": "withdraw",
      "outputs": [],
      "stateMutability": "nonpayable",
      "type": "function"
    },
    {
      "stateMutability": "payable",
      "type": "receive"
    }
  ],
  "transactionHash": "0xe306929a48d90b42b730401871434074fcb250791906fb143a9c79575418fb8c",
  "args": [
    "0xf6D28aF7c870BD1B39B1F962AEd618B0c54518c5"
  ],
  "numDeployments": 1,
  "solcInputHash": "d8d05a654accb29beffdb5840421355f",
  "bytecode": "0x6080604052610011426203f480610064565b60025534801561002057600080fd5b50604051610a07380380610a0783398101604081905261003f9161008b565b600080546001600160a01b0319166001600160a01b03929092169190911790556100bb565b8082018082111561008557634e487b7160e01b600052601160045260246000fd5b92915050565b60006020828403121561009d57600080fd5b81516001600160a01b03811681146100b457600080fd5b9392505050565b61093d806100ca6000396000f3fe6080604052600436106100955760003560e01c80633ccfd60b116100595780633ccfd60b146101d957806342cde4e8146101ee578063614619541461020a5780639876a6431461021f5780639f75f2271461023e57600080fd5b80631300a6d11461014457806327e235e31461016c57806329dcb0cf1461019957806331a38c89146101af5780633a4b66f11461013557600080fd5b3661013f5760008054906101000a90046001600160a01b03166001600160a01b0316639d9a7fe96040518163ffffffff1660e01b8152600401602060405180830381865afa1580156100eb573d6000803e3d6000fd5b505050506040513d601f19601f8201168201806040525081019061010f9190610830565b156101355760405162461bcd60e51b815260040161012c90610859565b60405180910390fd5b61013d610276565b005b600080fd5b34801561015057600080fd5b506101596103fd565b6040519081526020015b60405180910390f35b34801561017857600080fd5b5061015961018736600461089c565b60016020526000908152604090205481565b3480156101a557600080fd5b5061015960025481565b3480156101bb57600080fd5b506003546101c99060ff1681565b6040519015158152602001610163565b3480156101e557600080fd5b5061013d610421565b3480156101fa57600080fd5b506101596706f05b59d3b2000081565b34801561021657600080fd5b5061013d610637565b34801561022b57600080fd5b506003546101c990610100900460ff1681565b34801561024a57600080fd5b5060005461025e906001600160a01b031681565b6040516001600160a01b039091168152602001610163565b60008054906101000a90046001600160a01b03166001600160a01b0316639d9a7fe96040518163ffffffff1660e01b8152600401602060405180830381865afa1580156102c7573d6000803e3d6000fd5b505050506040513d601f19601f820116820180604052508101906102eb9190610830565b156103085760405162461bcd60e51b815260040161012c90610859565b60025442106103595760405162461bcd60e51b815260206004820152601860248201527f5374616b696e6720706572696f642068617320656e6465640000000000000000604482015260640161012c565b600034116103a25760405162461bcd60e51b81526020600482015260166024820152754d7573742073656e642045544820746f207374616b6560501b604482015260640161012c565b33600090815260016020526040812080543492906103c19084906108db565b909155505060405134815233907febedb8b3c678666e7f36970bc8f57abf6d8fa2e828c0da91ea5b75bf68ed101a9060200160405180910390a2565b6000600254421061040e5750600090565b4260025461041c91906108f4565b905090565b60008054906101000a90046001600160a01b03166001600160a01b0316639d9a7fe96040518163ffffffff1660e01b8152600401602060405180830381865afa158015610472573d6000803e3d6000fd5b505050506040513d601f19601f820116820180604052508101906104969190610830565b156104b35760405162461bcd60e51b815260040161012c90610859565b600354610100900460ff1661050a5760405162461bcd60e51b815260206004820152601860248201527f5769746864726177616c73206e6f74206f70656e207965740000000000000000604482015260640161012c565b3360009081526001602052604090205461055f5760405162461bcd60e51b81526020600482015260166024820152754e6f2062616c616e636520746f20776974686472617760501b604482015260640161012c565b33600081815260016020526040808220805490839055905190929083908381818185875af1925050503d80600081146105b4576040519150601f19603f3d011682016040523d82523d6000602084013e6105b9565b606091505b50509050806105fe5760405162461bcd60e51b815260206004820152601160248201527015da5d1a191c985dd85b0819985a5b1959607a1b604482015260640161012c565b60405182815233907f884edad9ce6fa2440d8a54cc123490eb96d2768479d49ff9c7366125a94243649060200160405180910390a25050565b60008054906101000a90046001600160a01b03166001600160a01b0316639d9a7fe96040518163ffffffff1660e01b8152600401602060405180830381865afa158015610688573d6000803e3d6000fd5b505050506040513d601f19601f820116820180604052508101906106ac9190610830565b156106c95760405162461bcd60e51b815260040161012c90610859565b60025442101561071b5760405162461bcd60e51b815260206004820152601b60248201527f446561646c696e6520686173206e6f7420706173736564207965740000000000604482015260640161012c565b60035460ff16156107615760405162461bcd60e51b815260206004820152601060248201526f105b1c9958591e48195e1958dd5d195960821b604482015260640161012c565b6003805460ff191660011790556706f05b59d3b20000471061081f5760008054906101000a90046001600160a01b03166001600160a01b031663522e1177476040518263ffffffff1660e01b81526004016000604051808303818588803b1580156107cb57600080fd5b505af11580156107df573d6000803e3d6000fd5b50505050507fddb556f1d2c1ec821e910b019d3685b229db152a0ecd517ca7e24b8bd71392894760405161081591815260200190565b60405180910390a1565b6003805461ff001916610100179055565b60006020828403121561084257600080fd5b8151801515811461085257600080fd5b9392505050565b60208082526023908201527f45787465726e616c20636f6e747261637420616c726561647920636f6d706c656040820152621d195960ea1b606082015260800190565b6000602082840312156108ae57600080fd5b81356001600160a01b038116811461085257600080fd5b634e487b7160e01b600052601160045260246000fd5b808201808211156108ee576108ee6108c5565b92915050565b818103818111156108ee576108ee6108c556fea26469706673582212200a151067dc47929ac75139b10930577acd784eff7b20f318e2a1d6237a81be6064736f6c63430008140033",
  "devdoc": {
    "kind": "dev",
    "methods": {},
    "version": 1
  },
  "userdoc": {
    "kind": "user",
    "methods": {},
    "version": 1
  },
  "storageLayout": {
    "storage": [
      {
        "astId": 19,
        "contract": "contracts/Staker.sol:Staker",
        "label": "exampleExternalContract",
        "offset": 0,
        "slot": "0",
        "type": "t_contract(ExampleExternalContract)12"
      },
      {
        "astId": 23,
        "contract": "contracts/Staker.sol:Staker",
        "label": "balances",
        "offset": 0,
        "slot": "1",
        "type": "t_mapping(t_address,t_uint256)"
      },
      {
        "astId": 32,
        "contract": "contracts/Staker.sol:Staker",
        "label": "deadline",
        "offset": 0,
        "slot": "2",
        "type": "t_uint256"
      },
      {
        "astId": 34,
        "contract": "contracts/Staker.sol:Staker",
        "label": "executed",
        "offset": 0,
        "slot": "3",
        "type": "t_bool"
      },
      {
        "astId": 36,
        "contract": "contracts/Staker.sol:Staker",
        "label": "openForWithdraw",
        "offset": 1,
        "slot": "3",
        "type": "t_bool"
      }
    ],
    "types": {
      "t_address": {
        "encoding": "inplace",
        "label": "address",
        "numberOfBytes": "20"
      },
      "t_bool": {
        "encoding": "inplace",
        "label": "bool",
        "numberOfBytes": "1"
      },
      "t_contract(ExampleExternalContract)12": {
        "encoding": "inplace",
        "label": "contract ExampleExternalContract",
        "numberOfBytes": "20"
      },
      "t_mapping(t_address,t_uint256)": {
        "encoding": "mapping",
        "key": "t_address",
        "label": "mapping(address => uint256)",
        "numberOfBytes": "32",
        "value": "t_uint256"
      },
      "t_uint256": {
        "encoding": "inplace",
        "label": "uint256",
        "numberOfBytes": "32"
      }
    }
  }
}